:100000000C9434000C9449000C9449000C94490061
:100010000C9449000C9449000C9449000C9449003C
:100020000C9449000C9449000C9449000C9449002C
:100030000C9449000C9449000C9449000C9449001C
:100040000C9449000C9449000C9449000C9449000C
:100050000C9449000C9449000C9449000C944900FC
:100060000C9449000C94490011241FBECFEFD8E036
:10007000DEBFCDBF11E0A0E0B1E0EAE9F1E002C0EF
:1000800005900D92A231B107D9F70E944B000C9454
:10009000CB000C94000017B88FEF88B90E94B00015
:1000A0000E949500309B03C080E091E002C08CE08C
:1000B00091E00E94A3008FEF99E6A8E18150904063
:1000C000A040E1F700C00000EBCF5C9A25B1207E94
:1000D000982F969596959695922B95B99BB182956A
:1000E000880F807E9F71892B8BB985E38A95F1F704
:1000F00000005C9808955A980E9465008FE59AEE7A
:100100000197F1F700C00000089580EC0E947B0089
:10011000089580E80E947B0008958FE00E947B0094
:10012000089588E00E947B00089581E00E947B0092
:1001300008955A9A0E94650087EC90E00197F1F7C4
:1001400000C000000895CF93DF93C82FD92F02C0BD
:100150000E94990089918823D9F7DF91CF91089562
:100160008FEF90E7A2E081509040A040E1F700C0FF
:1001700000008AB18C6F8AB984B18F6184B95C98B0
:100180008CE30E947B000E948D000E94950086E017
:0A0190000E947B000895F894FFCF51
:10019A0068656C6C6F20776F726C64006F7563684A
:0201AA00210032
:00000001FF
