:100000000C9434000C943E000C943E000C943E0082
:100010000C943E000C943E000C943E000C943E0068
:100020000C943E000C943E000C943E000C943E0058
:100030000C943E000C943E000C943E000C943E0048
:100040000C943E000C943E000C943E000C943E0038
:100050000C943E000C943E000C943E000C943E0028
:100060000C943E000C943E0011241FBECFEFD8E04C
:10007000DEBFCDBF0E9440000C9487000C940000AE
:10008000259A0E9472002D9A8FEF94E3ACE0815084
:100090009040A040E1F700C000002D988FEF9EE94E
:1000A000A4E281509040A040E1F700C00000EBCFF7
:1000B0002A9A2BB1982F990F990F2370922B9BB9E5
:1000C00095B182958695869583709C7F892B85B99D
:1000D00085E08A95F1F700002A9808952C980E94EF
:1000E0005800089584B18C6F84B98AB18F618AB940
:1000F0002A988FE59AEE0197F1F700C0000088E397
:100100000E946E0095E09A95F1F700000895F8942A
:02011000FFCF1F
:00000001FF
