:100000000C9434000C9449000C9449000C94490061
:100010000C9449000C9449000C9449000C9449003C
:100020000C9449000C9449000C9449000C9449002C
:100030000C9449000C9449000C9449000C9449001C
:100040000C9449000C9449000C9449000C9449000C
:100050000C9449000C9449000C9449000C944900FC
:100060000C9449000C94490011241FBECFEFD8E036
:10007000DEBFCDBF11E0A0E0B1E0E8EDF1E002C0ED
:1000800005900D92AC30B107D9F70E944B000C944B
:10009000EA000C940000259A0E94D5000E94B60048
:1000A0008FE39CE90197F1F700C0000080E091E048
:1000B0000E94C8002D9A8FEF94E3ACE081509040ED
:1000C000A040E1F700C000002D9881E60E94BE002C
:1000D0008FEF9EE9A4E281509040A040E1F700C07C
:1000E0000000E8CF5C9A95B1907E95B995B1282F24
:1000F00030E0A90141705070E4E0440F551FEA95CB
:10010000E1F7942B95B995B1A9014270507073E055
:10011000440F551F7A95E1F7942B95B995B1A90134
:1001200044705070440F551F440F551F942B95B9C0
:1001300095B128703070220F331F922B95B995B16D
:100140008071892B85B98BB183708BB98BB18BB9D9
:100150008BB18BB98BB18BB985E08A95F1F7000033
:100160005C9808955A980E94720008958CE00E944D
:10017000B200089588E00E94B20008955A9A0E9441
:10018000720087EC90E00197F1F700C0000008953D
:10019000CF93DF93C82FD92F02C00E94BE00899150
:1001A0008823D9F7DF91CF91089584B18C6F84B9FA
:1001B0008AB18F618AB95C988FE59AEE0197F1F761
:1001C00000C0000088E30E94B20095E09A95F1F724
:0801D00000000895F894FFCF30
:0C01D80068656C6C6F20776F726C6400BF
:00000001FF
