:100000000C9434000C9449000C9449000C94490061
:100010000C9449000C9449000C9449000C9449003C
:100020000C9449000C9449000C9449000C9449002C
:100030000C9449000C9449000C9449000C9449001C
:100040000C9449000C9449000C9449000C9449000C
:100050000C9449000C9449000C9449000C944900FC
:100060000C9449000C94490011241FBECFEFD8E036
:10007000DEBFCDBF11E0A0E0B1E0ECE2F2E002C0F3
:1000800005900D92AC30B107D9F70E944B000C944B
:1000900014010C940000259A0E94DA000E94A50029
:1000A0008FE39CE90197F1F700C0000080E091E048
:1000B0000E94CD00FFCF5C9A95B1907E95B995B125
:1000C000282F30E0A90141705070E4E0440F551F23
:1000D000EA95E1F7942B95B995B1A901427050705A
:1000E00073E0440F551F7A95E1F7942B95B995B1BC
:1000F000A90144705070440F551F440F551F942B95
:1001000095B995B128703070220F331F922B95B995
:1001100095B18071892B85B98BB183708BB98BB107
:100120008BB98BB18BB98BB18BB985E38A95F1F71C
:1001300000005C9808955A980E945B008FE59AEE43
:100140000197F1F700C0000008958CE00E949B0029
:100150008FE59AEE0197F1F700C00000089588E05E
:100160000E949B008FE59AEE0197F1F700C0000016
:10017000089581E00E949B008FE59AEE0197F1F7C8
:1001800000C0000008955A9A0E945B0087EC90E03E
:100190000197F1F700C000000895CF93DF93C82FB7
:1001A000D92F02C00E94C30089918823D9F7DF911B
:1001B000CF9108958AB18C6F8AB984B18F6184B967
:1001C0005C985B988FE59AEE0197F1F700C000000C
:1001D00088E30E949B008FE59AEE0197F1F700C03B
:1001E000000088E30E949B0095E09A95F1F70000DB
:1001F0000E94AF008FE59AEE0197F1F700C0000072
:100200000E94B9008FE59AEE0197F1F700C0000057
:1002100086E00E949B008FE59AEE0197F1F700C0FF
:0C02200000000E94A5000895F894FFCF94
:0C022C0068656C6C6F20776F726C64006A
:00000001FF
