:100000000C9434000C9449000C9449000C94490061
:100010000C9449000C9449000C9449000C9449003C
:100020000C9449000C9449000C9449000C9449002C
:100030000C9449000C9449000C9449000C9449001C
:100040000C9449000C9449000C9449000C9449000C
:100050000C9449000C9449000C9449000C944900FC
:100060000C9449000C94490011241FBECFEFD8E036
:10007000DEBFCDBF11E0A0E0B1E0E4EEF1E002C0F0
:1000800005900D92A232B107D9F70E944B000C9453
:10009000F0000C9400000E94D50080E091E00E94E6
:1000A000C8000E94AA008CE091E00E94C8008FEF77
:1000B00091EFABE281509040A040E1F700C000001A
:1000C0000E94BA0084E191E00E94C8008FEF91EF96
:1000D000ABE281509040A040E1F700C0000089E110
:1000E00091E00E94C8008FEF9EE9A4E28150904009
:1000F000A040E1F700C000000E94BA0080E091E05B
:100100000E94C8008FEF93EDA0E381509040A04083
:10011000E1F7D4CF5C9A25B1207E982F96959695DD
:100120009695922B95B99BB18295880F807E9F7191
:10013000892B8BB985E38A95F1F700005C980895C7
:100140005A980E948A008FE59AEE0197F1F700C055
:100150000000089580EC0E94A000089580E80E94AD
:10016000A00008958FE00E94A000089588E00E94FA
:10017000A000089581E00E94A00008955A9A0E946C
:100180008A0087EC90E00197F1F700C00000089525
:10019000CF93DF93C82FD92F02C00E94BE00899150
:1001A0008823D9F7DF91CF9108958FEF90E7A2E0F0
:1001B00081509040A040E1F700C000008AB18C6FF0
:1001C0008AB984B18F6184B95C988CE30E94A000E5
:1001D0000E94B2000E94BA0086E00E94A00008952A
:0401E000F894FFCFC1
:1001E40068656C6C6F20776F726C6400666F6F204B
:1001F40062617200546573740020537472696E678F
:020204000000F8
:00000001FF
