:100000000C9434000C943E000C943E000C943E0082
:100010000C943E000C943E000C943E000C943E0068
:100020000C943E000C943E000C943E000C943E0058
:100030000C943E000C943E000C943E000C943E0048
:100040000C943E000C943E000C943E000C943E0038
:100050000C943E000C943E000C943E000C943E0028
:100060000C943E000C943E0011241FBECFEFD8E04C
:10007000DEBFCDBF0E946C000C9482000C94000087
:100080002C982A9A2BB1982F990F990F2370922BA5
:100090009BB995B182958695869583709C7F892BB7
:1000A00085B985E08A95F1F700002A98089584B112
:1000B0008C6F84B98AB18F618AB92A988FE59AEEDC
:1000C0000197F1F700C0000088E30E94400095E02E
:1000D0009A95F1F700000895259A2D9A8FEF94E3F1
:1000E000ACE081509040A040E1F700C000002D98A6
:1000F0008FEF9EE9A4E281509040A040E1F700C05C
:080100000000EBCFF894FFCFE3
:00000001FF
