:100000000C9434000C943E000C943E000C943E0082
:100010000C943E000C943E000C943E000C943E0068
:100020000C943E000C943E000C943E000C943E0058
:100030000C943E000C943E000C943E000C943E0048
:100040000C943E000C943E000C943E000C943E0038
:100050000C943E000C943E000C943E000C943E0028
:100060000C943E000C943E0011241FBECFEFD8E04C
:10007000DEBFCDBF0E944B000C9469000C940000C1
:100080008FEF8AB983EA84BD82E085BD89E187BDAF
:100090008FEB88BD08950E94400022982A9A1A99F1
:1000A0000EC087B5873E08F017BC87B5875E87BD51
:1000B00088B5893108F418BC88B5895188BD8FEF9F
:1000C00099E6A8E181509040A040E1F700C000000F
:0600D000E6CFF894FFCF1B
:00000001FF
