:100000000C9434000C9451000C9451000C94510049
:100010000C9451000C9451000C9451000C9451001C
:100020000C9451000C9451000C9451000C94F3006A
:100030000C9451000C9451000C9480000C945100CD
:100040000C9451000C9451000C9451000C945100EC
:100050000C9451000C9451000C9451000C945100DC
:100060000C9451000C94510011241FBECFEFD8E026
:10007000DEBFCDBF12E0A0E0B1E0EAE5F3E002C0F0
:1000800005900D92AC34B107D9F712E0ACE4B2E0C0
:1000900001C01D92AE34B107E1F70E9456010C94E5
:1000A000AB010C940000109280008BE080938100E3
:1000B00010928200109285001092840010924D02DE
:1000C00010924C028091200190912101909389001F
:1000D000809388002D9AEFE6F0E080818260808333
:1000E000B19A82E084BD85B5826085BD16BC8AE187
:1000F00087BDEEE6F0E0808182608083A99A089552
:100100001F920F920FB60F9211248F939F9385B178
:1001100090E2892785B99F918F910F900FBE0F9024
:100120001F901895EF92FF920F931F937A018B0106
:1001300024E016950795F794E7942A95D1F79C014A
:1001400040E050E0C801B7010E946E0121503040EC
:1001500040405040BB27A52F942F832F8093C5008C
:100160002093C40088E18093C1008EE08093C20098
:10017000E0ECF0E080818D7F80831F910F91FF90F4
:10018000EF9008959091C00095FFFCCF8093C6003A
:100190000895EF92FF920F931F93CF93DF93EC019B
:1001A00009900020E9F72197C81BD90BE82EF92EFA
:1001B00000E010E007C0F70181917F010E94C200BA
:1001C0000F5F1F4F0C171D07B0F3CDB7DEB7E6E08A
:1001D0000C949C010E94C9008DE00E94C2008AE03C
:1001E0000E94C20008951F920F920FB60F92112421
:1001F0002F933F934F935F936F937F938F939F932F
:10020000AF93BF93EF93FF9380914C0290914D0277
:10021000019690934D0280934C0286399105F8F433
:10022000FC01EE0FFF1FE05EFE4F20813181309315
:10023000890020938800109285001092840080FF2E
:1002400007C016BC80916E00826080936E0016C05D
:1002500080916E008D7F80936E002D9A0FC080E09C
:1002600091E00E94EA0080916E008D7F80936E0085
:100270002D9A80916F008D7F80936F00FF91EF9199
:10028000BF91AF919F918F917F916F915F914F91AE
:100290003F912F910F900FBE0F901F901895809156
:1002A000C00087FFFCCF8091C6000895259A2D9A43
:1002B00080E895E240E054E264EF70E00E94920032
:1002C00078940E944F0180E191E00E94EA000E9430
:1002D0005300F7CF8091C00080780895A1E21A2ED4
:1002E000AA1BBB1BFD010DC0AA1FBB1FEE1FFF1FDA
:1002F000A217B307E407F50720F0A21BB30BE40B2A
:10030000F50B661F771F881F991F1A9469F7609570
:100310007095809590959B01AC01BD01CF0108952A
:100320002A88398848885F846E847D848C849B8485
:10033000AA84B984C884DF80EE80FD800C811B8193
:10034000AA81B981CE0FD11D0FB6F894DEBF0FBEC2
:0A035000CDBFED010895F894FFCF32
:10035A00446F6E65207769746820636F6465210055
:10036A00456D6D697474696E6720436F6465210019
:10037A00D5B6050154006300DE00620054006A002D
:10038A004E006A009200620054006300210162007C
:10039A005500630054006300DB00630098006300AB
:1003AA009800620098006300980063009800680053
:1003BA004E006A004E006300540062005400690057
:1003CA004E00620099006300DC006300DB006300FA
:1003DA005400630023590C014E006900D8006200E2
:1003EA0055006300540063009700630054006900DD
:1003FA001A016200540069004E006A00D5006300C9
:10040A0098006A009200620098006A0092006300F5
:10041A0097006300540063005500630053006300B3
:10042A00540063005400630097006400DC006A0013
:10043A00D500630054006300DE060C014E006A001A
:10044A00D800620055006200540063009800620000
:10045A0055006300210163005300630054006900E2
:10046A00D50062009800630098006300970063005B
:10047A00980063009800620054006300540063000F
:10048A0054006200980063005400620099006300FF
:0C049A00DD0063002001630055006900D4
:00000001FF
