:100000000C9434000C943E000C943E000C943E0082
:100010000C943E000C944C000C943E000C943E005A
:100020000C943E000C943E000C943E000C943E0058
:100030000C943E000C943E000C943E000C943E0048
:100040000C943E000C943E000C943E000C943E0038
:100050000C943E000C943E000C943E000C943E0028
:100060000C943E000C943E0011241FBECFEFD8E04C
:10007000DEBFCDBF0E9447000C9469000C940000C5
:1000800084E08093680080936D008BBB08950E948C
:100090004000259A7894FFCF1F920F920FB60F92CF
:1000A00011248F939F93AF93BF932D9A8FEF99E66F
:1000B000A8E181509040A040E1F700C000002D98D9
:1000C000BF91AF919F918F910F900FBE0F901F9096
:0600D0001895F894FFCF23
:00000001FF
