:100000000C9434000C943E000C943E000C943E0082
:100010000C943E000C943E000C943E000C943E0068
:100020000C943E000C943E000C943E000C943E0058
:100030000C943E000C943E000C943E000C943E0048
:100040000C943E000C943E000C943E000C943E0038
:100050000C943E000C943E000C943E000C943E0028
:100060000C943E000C943E0011241FBECFEFD8E04C
:10007000DEBFCDBF0E944D000C94CA000C9400005E
:1000800084E58CBD1DBC84E085B908952A988EBD99
:100090000DB407FEFDCF2A9A08958CE284B90E9420
:1000A000400080EF0E9446008FE891E00197F1F751
:1000B00000C000008FE00E9446008FE891E00197A9
:1000C000F1F700C00000EDCF5C9A25B1207E982F9B
:1000D000969596959695922B95B99BB18295880F9A
:1000E000807E9F71892B8BB985E38A95F1F700009B
:1000F0005C9808955A980E9464008FE59AEE0197E3
:10010000F1F700C00000089580EC0E947A00089585
:1001100080E80E947A0008958FE00E947A00089596
:1001200088E00E947A00089581E00E947A00089594
:100130005A9A0E94640087EC90E00197F1F700C0A2
:1001400000000895CF93DF93C82FD92F02C00E94DB
:10015000980089918823D9F7DF91CF9108958FEF87
:1001600090E7A2E081509040A040E1F700C000007D
:100170008AB18C6F8AB984B18F6184B95C988CE341
:100180000E947A000E948C000E94940086E00E94E7
:080190007A000895F894FFCFF6
:00000001FF
