:100000000C9434000C9451000C9451000C94510049
:100010000C9451000C9407020C9451000C94510064
:100020000C9451000C9451000C9451000C94E1017B
:100030000C94ED000C9451000C94DB000C945100D6
:100040000C9451000C9451000C9451000C945100EC
:100050000C9451000C9451000C9451000C945100DC
:100060000C9451000C94510011241FBECFEFD8E026
:10007000DEBFCDBF11E0A0E0B1E0EEE1FBE002C0E9
:1000800005900D92AC31B107D9F715E0ACE1B1E0C4
:1000900001C01D92A132B107E1F70E9453000C94F8
:1000A0008D050C94000080E895E240E054E264EF96
:1000B00070E00E946F0078940E94D000823549F071
:1000C000833518F48035C1F707C0803729F08237AF
:1000D00099F70E946902F0CF0E947B01EDCFEF9269
:1000E000FF920F931F937A018B0124E016950795D9
:1000F000F794E7942A95D1F79C0140E050E0C801BD
:10010000B7010E948A022150304040405040BB2736
:10011000A52F942F832F8093C5002093C40088E1DE
:100120008093C1008EE08093C200E0ECF0E080811B
:100130008D7F80831F910F91FF90EF900895909194
:10014000C00095FFFCCF8093C6000895EF92FF9208
:100150000F931F93CF93DF93EC0109900020E9F7F1
:100160002197C81BD90BE82EF92E00E010E007C03C
:10017000F70181917F010E949F000F5F1F4F0C17B5
:100180001D07B0F3CDB7DEB7E6E00C94D4020E94B1
:10019000A6008DE00E949F008AE00E949F000895C3
:1001A0008091C00087FFFCCF8091C60008958091A8
:1001B000C000807808951F920F920FB60F921124FD
:1001C0008F939F9385B190E2892785B99F918F91F5
:1001D0000F900FBE0F901F9018951F920F920FB6A1
:1001E0000F9211242F933F934F935F936F937F93BD
:1001F0008F939F93AF93BF93EF93FF9380911C01D5
:100200008F5F80931C0190E02091210130912201A9
:10021000821793071CF59C01220F331FE0912301E5
:10022000F0912401E20FF31F2081318130938B0084
:1002300020938A00109285001092840080FF07C0EE
:1002400016BC80916E00826080936E0016C0809113
:100250006E008D7F80936E002D9A0FC080E091E03C
:100260000E94C70080916E008D7F80936E002D9A52
:1002700080916F008D7F80936F00FF91EF91BF9110
:10028000AF919F918F917F916F915F914F913F912E
:100290002F910F900FBE0F901F9018951092800015
:1002A0008BE0809381001092820010928500109262
:1002B000840010921C01E0912301F09124018081BF
:1002C000918190938B0080938A002D9AEFE6F0E065
:1002D000808182608083B19A82E084BD85B582602E
:1002E00085BD16BC8AE187BDEEE6F0E080818260C4
:1002F0008083A99A08950895ABE0B0E0E2E8F1E0C8
:100300000C94B502E82EF92EBB248E010F5F1F4F0F
:1003100080E1C82E81E0D82E49C000D000D000D0A6
:10032000EDB7FEB73196ADB7BEB712961C930E93DC
:100330001197D382C282D7018D919C91958384833A
:100340006B870E94E3028DB79EB706960FB6F894AE
:100350009EBF0FBE8DBFC8010E94A60000D000D076
:1003600000D0EDB7FEB73196ADB7BEB712961C936D
:100370000E931197D382C282D70112968D919C91D0
:100380001397958384830E94E3028DB79EB70696E8
:100390000FB6F8949EBF0FBE8DBFC8010E94A60085
:1003A000B394A4E0B0E0EA0EFB1E6B85B61608F429
:1003B000B4CF85E191E00E94C7002B96E9E00C9450
:1003C000D1021F920F920FB60F9211248F939F9319
:1003D00080912001882329F080931D0110921E0135
:1003E0000DC080911F018F5F80931F01893230F013
:1003F0008FEF9FEF90931E0180931D0110922001BB
:100400009F918F910F900FBE0F901F9018951F9284
:100410000F920FB60F9211242F938F939F93EF9308
:10042000FF938091840090918500209120014A994A
:100430000BC0E22FF0E0EE0FFF1FEE0FFF1FEB5D92
:10044000FE4F918380830DC0E22FF0E0EE0FFF1F7F
:10045000EE0FFF1FEB5DFE4F938382832F5F209390
:1004600020011092850010928400FF91EF919F91DE
:100470008F912F910F900FBE0F901F90189552984B
:1004800010921E0110921D0110921F011092800007
:100490008BE0809381001092820084E294EF90932D
:1004A0008900809388001092850010928400EFE606
:1004B000F0E0808182608083B19AE8E6F0E080819C
:1004C00084608083EDE6F0E0808184608083DA9A46
:1004D00008950E943F0280911D0190911E01009796
:1004E000C1F097FF05C087E191E00E94C70006C0F8
:1004F00085E291E0609120010E947C01809168007A
:100500008B7F8093680080916F008D7F80936F0058
:100510000895FFCFA1E21A2EAA1BBB1BFD010DC03F
:10052000AA1FBB1FEE1FFF1FA217B307E407F507A3
:1005300020F0A21BB30BE40BF50B661F771F881F7F
:10054000991F1A9469F760957095809590959B0115
:10055000AC01BD01CF0108952F923F924F925F925F
:100560006F927F928F929F92AF92BF92CF92DF92C3
:10057000EF92FF920F931F93CF93DF93CDB7DEB728
:10058000CA1BDB0B0FB6F894DEBF0FBECDBF0994BC
:100590002A88398848885F846E847D848C849B8413
:1005A000AA84B984C884DF80EE80FD800C811B8121
:1005B000AA81B981CE0FD11D0FB6F894DEBF0FBE50
:1005C000CDBFED010895AEE0B0E0E9EEF2E00C94AD
:1005D000BA020D891E8986E08C831A8309838FEF06
:1005E0009FE79E838D839E01275E3F4FCE0101963C
:1005F0006F89788DA9010E940603EF81F885E00FCD
:10060000F11F10822E96E4E00C94D602ACE0B0E02C
:10061000ECE0F3E00C94AC026C011B018A01FC01DC
:1006200017821682838181FFD1C12E010894411C5B
:10063000511CF6019381F10193FD859193FF819106
:100640001F01882309F4BEC1853239F493FD8591D9
:1006500093FF81911F01853229F490E0B6010E9439
:100660000305E7CFEE24FF2420E02032B0F48B32E4
:1006700069F08C3228F4803251F0833271F40BC06F
:100680008D3239F0803349F421602CC0226024601F
:1006900029C0286027C0206125C027FD2CC0382F25
:1006A00030533A3098F426FF08C08E2D880FE82E7C
:1006B000EE0CEE0CE80EE30E15C08F2D880FF82E11
:1006C000FF0CFF0CF80EF30E20620CC08E3221F4EA
:1006D00026FD78C1206406C08C3611F4206802C063
:1006E000883649F4F10193FD859193FF81911F01B3
:1006F000882309F0BACF982F9554933018F0905270
:10070000933028F40C5F1F4FFFE3F9830DC083364D
:1007100031F0833771F0833509F060C022C0F801F1
:10072000808189830E5F1F4F420171E0A72EB12C9B
:1007300016C062E0662E712C600E711EF80180807A
:10074000918026FF03C06E2D70E002C06FEF7FEF37
:10075000C4012C870E94F8045C0183012C852F774B
:1007600017C052E0652E712C600E711EF80180805A
:10077000918026FF03C06E2D70E002C06FEF7FEF07
:10078000C4012C870E94ED045C012C852068830144
:1007900023FD20C008C080E290E0B6012C870E94B3
:1007A0000305FA942C858F2D90E0A816B90698F3CE
:1007B00011C0F40127FD859127FF81914F0190E041
:1007C000B6012C870E9403052C85F110FA94089439
:1007D000A108B108A114B10461F7F1C0843611F089
:1007E000893649F527FF08C0F8016081718182814F
:1007F00093810C5F1F4F09C0F801608171818827C8
:1008000077FD8095982F0E5F1F4F4FE6B42EB222D2
:1008100097FF09C090958095709561957F4F8F4F98
:100820009F4FF0E8BF2AA2012AE030E00E942F0586
:10083000782E741845C0853731F43FEEB32EB222BE
:100840002AE030E025C099EFB92EB2228F36C1F0F0
:10085000803720F4883509F0B5C00DC0803721F00D
:10086000883709F0AFC002C020E1B22AB4FE0BC045
:1008700084E0B82A08C0B4FE09C0E6E0BE2A06C07B
:1008800028E030E005C020E130E002C020E132E0A5
:10089000B7FE08C0F80160817181828193810C5F8D
:1008A0001F4F07C0F8016081718180E090E00E5F0A
:1008B0001F4FA2010E942F05782E7418FFE7BF2258
:1008C000B6FE0BC02EEFB2227E1438F4B4FE07C081
:1008D000B2FC05C08FEEB82202C0A72C01C0AE2C1E
:1008E0008B2D90E0B4FE0DC0FE01E70DF11D2081BF
:1008F000203319F4E9EEBE2209C0A394B2FE06C06B
:1009000004C086789070009709F0A3948B2C9924EA
:10091000B3FC14C0B0FE0FC0AF1428F4E72CEF0CEA
:10092000EA18AF2C08C0E72C06C080E290E0B601C0
:100930000E940305A394AF14C0F304C0AF1410F4D5
:10094000FA1801C0FF2484FE0FC080E390E0B601D6
:100950000E94030582FE1FC081FE03C088E590E06F
:1009600010C088E790E00DC0C401867890700097B1
:1009700091F081FC02C080E201C08BE2B7FC8DE205
:1009800090E0B6010E94030506C080E390E0B60146
:100990000E940305EA947E14C0F37A94F201E70DF5
:1009A000F11D808190E0B6010E9403057720A9F730
:1009B00006C080E290E0B6010E940305FA94FF2091
:1009C000C1F737CEF6012681378102C02FEF3FEF06
:1009D000C9012C96E2E10C94C802FC01059061501B
:1009E00070400110D8F7809590958E0F9F1F089545
:1009F000FC016150704001900110D8F780959095EE
:100A00008E0F9F1F08950F931F93CF93DF938C0139
:100A1000EB018B8181FF1BC082FF0DC02E813F81C6
:100A20008C819D812817390764F4E881F98101934D
:100A3000F983E88306C0E885F985802F099500973A
:100A400031F48E819F8101969F838E8302C00FEFC8
:100A50001FEFC801DF91CF911F910F910895FA0107
:100A6000AA27283051F1203181F1E8946F936E7FED
:100A70006E5F7F4F8F4F9F4FAF4FB1E03ED0B4E0DE
:100A80003CD0670F781F891F9A1FA11D680F791F1F
:100A90008A1F911DA11D6A0F711D811D911DA11D30
:100AA00020D009F468943F912AE0269F1124301940
:100AB000305D3193DEF6CF010895462F4770405DDB
:100AC0004193B3E00FD0C9F7F6CF462F4F70405D8A
:100AD0004A3318F0495D31FD4052419302D0A9F7E5
:100AE000EACFB4E0A6959795879577956795BA95DF
:100AF000C9F700976105710508959B01AC010A2EA5
:100B000006945795479537952795BA95C9F7620F7B
:0E0B1000731F841F951FA01D0895F894FFCF3A
:100B1E00446F6E65207769746820636F6465210089
:0C0B2E002536752C007C006572720000FA
:00000001FF
