:100000000C9434000C9451000C9451000C94510049
:100010000C9451000C9465020C9451000C94510006
:100020000C9451000C9451000C9451000C943F021C
:100030000C94F4000C9451000C94E2000C945100C8
:100040000C9451000C9451000C9451000C945100EC
:100050000C9451000C9451000C9451000C945100DC
:100060000C9451000C94510011241FBECFEFD8E026
:10007000DEBFCDBF11E0A0E0B1E0E8EBF0E102C0EF
:1000800005900D92A031B107D9F715E0A0E1B1E0DC
:1000900001C01D92AB31B107E1F70E9453000C94EF
:1000A0005A080C9400000E94D8010E94DF0080E8EA
:1000B00095E240E054E264EF70E00E9473007894AF
:1000C0000E94D400823549F0833518F48035C1F799
:1000D00007C0803729F0823799F70E94C602F0CF17
:1000E0000E947101EDCFEF92FF920F931F937A015F
:1000F0008B0124E016950795F794E7942A95D1F79C
:100100009C0140E050E0C801B7010E94EC02215080
:10011000304040405040BB27A52F942F832F809321
:10012000C5002093C40088E18093C1008EE08093D5
:10013000C200E0ECF0E080818D7F80831F910F9101
:10014000FF90EF9008959091C00095FFFCCF8093B1
:10015000C6000895EF92FF920F931F93CF93DF9302
:10016000EC0109900020E9F72197C81BD90BE82E74
:10017000F92E00E010E007C0F70181917F010E9495
:10018000A3000F5F1F4F0C171D07B0F3CDB7DEB7ED
:10019000E6E00C9436030E94AA008DE00E94A300C2
:1001A0008AE00E94A30008958091C00087FFFCCFE1
:1001B0008091C60008958091C00080780895259AA6
:1001C0002D9A08951F920F920FB60F9211248F93BC
:1001D0009F9385B190E2892785B99F918F910F9068
:1001E0000FBE0F901F9018951F920F920FB60F928F
:1001F00011242F933F938F939F93EF93FF938091BD
:1002000011018F5F8093110190911601891720F5DC
:1002100090E09C01220F331FE0911701F09118012B
:10022000E20FF31F2081318130938B0020938A00ED
:10023000109285001092840080FF07C016BC809148
:100240006E00826080936E0014C080916E008D7F7E
:1002500080936E002D9A0DC09093100180916E00D6
:100260008D7F80936E002D9A80916F008B7F80939D
:100270006F00FF91EF919F918F913F912F910F9080
:100280000FBE0F901F901895109280008BE0809306
:1002900081001092820010928500109284001092CA
:1002A0001101E0911701F0911801808191819093E3
:1002B0008B0080938A002D9AEFE6F0E080818460C5
:1002C0008083B19A82E084BD85B5826085BD16BC0D
:1002D0008AE187BDEEE6F0E0808182608083A99AA2
:1002E0000895ACE0B0E0E7E7F1E00C9419030E9458
:1002F000D4008093160190E0880F991F0E94450357
:10030000809317019093180190E0DD248E010F5F18
:100310001F4F2BC09C870E94D4009C858C32E1F437
:100320009923E1F0F801E90FF11D10828D2D90E085
:10033000880F991FE0901701F0901801E80EF91E40
:10034000C80160E070E04AE050E00E947804F701E4
:1003500071836083D39408C09B3030F4F801E90FB7
:10036000F11D80839F5F01C090E080911601D81637
:1003700088F2882379F0109210010E94440106C08F
:100380008FE193E00197F1F700C000008091100128
:100390008823B1F380911701909118010E94DF0327
:1003A00010921801109217012C96E7E00C94350377
:1003B00052980895ABE0B0E0E0EEF1E00C94170342
:1003C000E82EF92EBB248E010F5F1F4F80E0C82E50
:1003D00081E0D82E49C000D000D000D0EDB7FEB7E4
:1003E0003196ADB7BEB712961C930E931197D38278
:1003F000C282D7018D919C91958384836B870E94E3
:100400008E058DB79EB706960FB6F8949EBF0FBEA9
:100410008DBFC8010E94AA0000D000D000D0EDB767
:10042000FEB73196ADB7BEB712961C930E931197D7
:10043000D382C282D70112968D919C911397958396
:1004400084830E948E058DB79EB706960FB6F894EA
:100450009EBF0FBE8DBFC8010E94AA00B394A4E046
:10046000B0E0EA0EFB1E6B85B61608F4B4CF84E04C
:1004700091E00E94CB002B96E9E00C9433031F928D
:100480000F920FB60F9211248F939F9380911501B5
:10049000882329F080931201109213010DC08091DE
:1004A00014018F5F80931401893230F08FEF9FEF3A
:1004B0009093130180931201109215019F918F91D7
:1004C0000F900FBE0F901F9018951F920F920FB6AE
:1004D0000F9211242F938F939F93EF93FF9380910B
:1004E000840090918500209115014A990BC0E22F5C
:1004F000F0E0EE0FFF1FEE0FFF1FE75EFE4F918350
:1005000080830DC0E22FF0E0EE0FFF1FEE0FFF1F04
:10051000E75EFE4F938382832F5F20931501109235
:10052000850010928400FF91EF919F918F912F9100
:100530000F900FBE0F901F901895109213011092FC
:10054000120110921401109280008BE080938100C0
:100550001092820084E294EF909389008093880047
:100560001092850010928400EFE6F0E080818260B6
:100570008083B19AE8E6F0E0808184608083EDE6D4
:10058000F0E0808184608083DA9A08950E949D0261
:1005900006C08FE193E00197F1F700C00000609181
:1005A0001201709113016115710599F377FF05C070
:1005B00086E091E00E94CB0004C089E191E00E94B6
:1005C000DA01809168008B7F8093680080916F00D2
:1005D0008D7F80936F000895A1E21A2EAA1BBB1B8A
:1005E000FD010DC0AA1FBB1FEE1FFF1FA217B307FF
:1005F000E407F50720F0A21BB30BE40BF50B661F15
:10060000771F881F991F1A9469F7609570958095D8
:1006100090959B01AC01BD01CF0108952F923F92AF
:100620004F925F926F927F928F929F92AF92BF9202
:10063000CF92DF92EF92FF920F931F93CF93DF93AE
:10064000CDB7DEB7CA1BDB0B0FB6F894DEBF0FBE0B
:10065000CDBF09942A88398848885F846E847D8458
:100660008C849B84AA84B984C884DF80EE80FD805A
:100670000C811B81AA81B981CE0FD11D0FB6F894D0
:10068000DEBF0FBECDBFED010895CF93DF93823063
:10069000910510F482E090E0E0911705F0911805C3
:1006A00040E050E020E030E026C0608171816817B2
:1006B0007907E0F06817790781F482819381211529
:1006C000310531F0D90113969C938E9312972BC06C
:1006D000909318058093170526C04115510519F010
:1006E0006417750718F4AB01E901DF019F017281FE
:1006F0006381E72FF62F3097C1F64115510501F1BF
:10070000481B590B4430510580F412968D919C91F1
:100710001397209719F09B838A8304C09093180540
:1007200080931705FD01329646C0FD01E40FF51FC9
:10073000819391934250504011965C934E933BC0ED
:1007400020911505309116052115310541F42091B0
:100750000C0130910D013093160520931505209161
:100760000E0130910F012115310541F42DB73EB72F
:1007700040910A0150910B01241B350BE0911505A6
:10078000F0911605E217F307A0F42E1B3F0B281774
:10079000390778F0AC014E5F5F4F2417350748F0FA
:1007A0004E0F5F1F5093160540931505819391934B
:1007B00002C0E0E0F0E0CF01DF91CF910895CF9348
:1007C000DF93009709F491C0FC01329713821282E3
:1007D00060911705709118056115710581F42081EC
:1007E0003181280F391F80911505909116058217C8
:1007F000930799F5F0931605E093150576C0DB0194
:1008000080E090E002C0CD01D901AE17BF0748F4E7
:1008100012962D913C91139721153105A1F7CD0129
:1008200021C0B383A283EF01499159919E01240F06
:10083000351FA217B30779F42D913C911197240F1E
:10084000351F2E5F3F4F3183208312962D913C91AF
:10085000139733832283009729F4F0931805E093CC
:10086000170543C0DC011396FC93EE9312974D914C
:100870005D91A40FB51FEA17FB0769F42081318150
:10088000240F351F2E5F3F4FEC01398328832281CF
:1008900033813B832A83E0E0F0E002C0FB01BC012E
:1008A000DB0112968D919C9113970097B9F79B01EC
:1008B0002E5F3F4F8D919C911197820F931F409116
:1008C0001505509116054817590779F4309729F402
:1008D000109218051092170502C01382128222503E
:1008E00030403093160520931505DF91CF91089580
:1008F0002F923F924F925F926F927F929F92AF9210
:10090000BF92CF92DF92EF92FF920F931F93CF93FC
:10091000DF933B01EA016115710519F0FB0180834A
:100920009183209739F09E012250304023323105C7
:1009300008F0D5C0C82ED92EF60111916F017F01A4
:10094000812F90E00E9486050097B1F71D3231F4A7
:10095000F60111917F019924939406C01B3219F47A
:10096000F60111917F019924209719F0C031D1052A
:10097000D1F4103389F4F7018081883711F088357C
:1009800059F4F701118182E090E0E80EF91E92E03F
:10099000992AC0E1D0E007C0209729F41033B1F0C4
:1009A000CAE0D0E02BC0CA30D10541F1C031D10539
:1009B00021F0C830D105A9F409C02FEFA22E2FEFE6
:1009C000B22E2FEFC22E2FE0D22E20C0C8E0D0E0F2
:1009D0009FEFA92E9FEFB92E9FEFC92E9FE1D92E31
:1009E00015C09E01442737FD4095542F6FEF7FEFD0
:1009F000CB010E94EC0259016A0108C089E9A82EC6
:100A000089E9B82E89E9C82E89E1D82E60E020E076
:100A100030E0A9011E01442437FC4094542C012FDE
:100A200000530A3060F0812F81548A3110F407504E
:100A300006C0812F81568A3150F5012F0755802F2E
:100A400090E08C179D071CF56F3FE9F0A216B306E6
:100A5000C406D506A8F0CA01B901A20191010E94FD
:100A60003B089B01AC01802F90E0A0E0B0E0280F94
:100A7000391F4A1F5B1F281739074A075B0710F405
:100A80006FEF01C061E0F70111917F01C8CF6114E0
:100A9000710481F0662339F00894E108F108F3014C
:100AA000F182E08207C091FE05C0C7010297F30101
:100AB0009183808390FE07C0509540953095219595
:100AC0003F4F4F4F5F4F67FF0DC082E290E0909322
:100AD0001A05809319052FEF3FEFA90103C020E00D
:100AE00030E0A901B901CA01DF91CF911F910F91A7
:100AF000FF90EF90DF90CF90BF90AF909F907F904E
:100B00006F905F904F903F902F900895911110C279
:100B1000803219F089508550D0F70895AEE0B0E0EA
:100B2000E4E9F5E00C941C030D891E8986E08C83B2
:100B30001A8309838FEF9FE79E838D839E01275E33
:100B40003F4FCE0101966F89788DA9010E94B105B2
:100B5000EF81F885E00FF11F10822E96E4E00C94EF
:100B60003803ACE0B0E0E7EBF5E00C940E036C0169
:100B70001B018A01FC0117821682838181FFD1C18A
:100B80002E010894411C511CF6019381F10193FD43
:100B9000859193FF81911F01882309F4BEC185329D
:100BA00039F493FD859193FF81911F01853229F4DA
:100BB00090E0B6010E94B107E7CFEE24FF2420E0C9
:100BC0002032B0F48B3269F08C3228F4803251F04C
:100BD000833271F40BC08D3239F0803349F42160D7
:100BE0002CC02260246029C0286027C0206125C055
:100BF00027FD2CC0382F30533A3098F426FF08C018
:100C00008E2D880FE82EEE0CEE0CE80EE30E15C0CC
:100C10008F2D880FF82EFF0CFF0CF80EF30E2062BC
:100C20000CC08E3221F426FD78C1206406C08C36BB
:100C300011F4206802C0883649F4F10193FD8591D2
:100C400093FF81911F01882309F0BACF982F955403
:100C5000933018F09052933028F40C5F1F4FFFE34D
:100C6000F9830DC0833631F0833771F0833509F095
:100C700060C022C0F801808189830E5F1F4F42014E
:100C800071E0A72EB12C16C062E0662E712C600EAA
:100C9000711EF8018080918026FF03C06E2D70E0E8
:100CA00002C06FEF7FEFC4012C870E94A6075C0192
:100CB00083012C852F7717C052E0652E712C600EB2
:100CC000711EF8018080918026FF03C06E2D70E0B8
:100CD00002C06FEF7FEFC4012C870E949B075C016D
:100CE0002C852068830123FD20C008C080E290E0AD
:100CF000B6012C870E94B107FA942C858F2D90E0C5
:100D0000A816B90698F311C0F40127FD859127FFB5
:100D100081914F0190E0B6012C870E94B1072C858C
:100D2000F110FA940894A108B108A114B10461F774
:100D3000F1C0843611F0893649F527FF08C0F80163
:100D400060817181828193810C5F1F4F09C0F8011E
:100D500060817181882777FD8095982F0E5F1F4FE6
:100D60004FE6B42EB22297FF09C0909580957095FA
:100D700061957F4F8F4F9F4FF0E8BF2AA2012AE075
:100D800030E00E94DD07782E741845C0853731F4B5
:100D90003FEEB32EB2222AE030E025C099EFB92E03
:100DA000B2228F36C1F0803720F4883509F0B5C003
:100DB0000DC0803721F0883709F0AFC002C020E1B4
:100DC000B22AB4FE0BC084E0B82A08C0B4FE09C041
:100DD000E6E0BE2A06C028E030E005C020E130E0B1
:100DE00002C020E132E0B7FE08C0F80160817181E5
:100DF000828193810C5F1F4F07C0F8016081718170
:100E000080E090E00E5F1F4FA2010E94DD07782E68
:100E10007418FFE7BF22B6FE0BC02EEFB2227E147D
:100E200038F4B4FE07C0B2FC05C08FEEB82202C091
:100E3000A72C01C0AE2C8B2D90E0B4FE0DC0FE019E
:100E4000E70DF11D2081203319F4E9EEBE2209C01F
:100E5000A394B2FE06C004C086789070009709F093
:100E6000A3948B2C9924B3FC14C0B0FE0FC0AF1414
:100E700028F4E72CEF0CEA18AF2C08C0E72C06C0CA
:100E800080E290E0B6010E94B107A394AF14C0F3D2
:100E900004C0AF1410F4FA1801C0FF2484FE0FC080
:100EA00080E390E0B6010E94B10782FE1FC081FE80
:100EB00003C088E590E010C088E790E00DC0C40151
:100EC00086789070009791F081FC02C080E201C0AA
:100ED0008BE2B7FC8DE290E0B6010E94B10706C03C
:100EE00080E390E0B6010E94B107EA947E14C0F35B
:100EF0007A94F201E70DF11D808190E0B6010E9425
:100F0000B1077720A9F706C080E290E0B6010E9401
:100F1000B107FA94FF20C1F737CEF6012681378159
:100F200002C02FEF3FEFC9012C96E2E10C942A0397
:100F3000992788270895FC010590615070400110A1
:100F4000D8F7809590958E0F9F1F0895FC016150F2
:100F5000704001900110D8F7809590958E0F9F1FDB
:100F600008950F931F93CF93DF938C01EB018B8137
:100F700081FF1BC082FF0DC02E813F818C819D812E
:100F80002817390764F4E881F9810193F983E8832C
:100F900006C0E885F985802F0995009731F48E8188
:100FA0009F8101969F838E8302C00FEF1FEFC801C0
:100FB000DF91CF911F910F910895FA01AA27283050
:100FC00051F1203181F1E8946F936E7F6E5F7F4F16
:100FD0008F4F9F4FAF4FB1E03ED0B4E03CD0670F92
:100FE000781F891F9A1FA11D680F791F8A1F911DE5
:100FF000A11D6A0F711D811D911DA11D20D009F435
:1010000068943F912AE0269F11243019305D319376
:10101000DEF6CF010895462F4770405D4193B3E05F
:101020000FD0C9F7F6CF462F4F70405D4A3318F006
:10103000495D31FD4052419302D0A9F7EACFB4E0B7
:10104000A6959795879577956795BA95C9F700976F
:101050006105710508959B01AC010A2E0694579510
:10106000479537952795BA95C9F7620F731F841F67
:10107000951FA01D0895629FD001739FF001829F6C
:10108000E00DF11D649FE00DF11D929FF00D839F17
:10109000F00D749FF00D659FF00D9927729FB00DB4
:1010A000E11DF91F639FB00DE11DF91FBD01CF01C7
:0810B00011240895F894FFCF0C
:1010B80025752C007C006572720020001B0500005D
:00000001FF
