:100000000C943A000C9457000C9457000C94570031
:100010000C9457000C945C020C9457000C945700FD
:100020000C9457000C9457000C9457000C94360213
:100030000C94F7000C9457000C94E5000C945700B6
:100040000C9457000C9457000C9457000C945700D4
:100050000C9457000C9457000C9457000C945700C4
:100060000C9457000C9457006364696E6F7073753D
:1000700078585B0011241FBECFEFD8E0DEBFCDBFA4
:1000800011E0A0E0B1E0EAEDF4E102C005900D92CC
:10009000A232B107D9F715E0A2E2B1E001C01D928A
:1000A000AB32B107E1F70E9459000C946B0A0C9433
:1000B000000080E895E240E054E264EF70E00E94C6
:1000C000790078940E94DA00823549F0833518F47B
:1000D0008035C1F707C0803729F0823799F70E9431
:1000E000BE02F0CF80E091E00E94D1000E94740136
:1000F000E9CFEF92FF920F931F937A018B0124E0D7
:1001000016950795F794E7942A95D1F79C0140E05E
:1001100050E0C801B7010E94E40221503040404045
:100120005040BB27A52F942F832F8093C500209389
:10013000C40088E18093C1008EE08093C200E0ECAF
:10014000F0E080818D7F80831F910F91FF90EF9071
:1001500008959091C00095FFFCCF8093C60008954C
:10016000EF92FF920F931F93CF93DF93EC010990CF
:100170000020E9F72197C81BD90BE82EF92E00E0E3
:1001800010E007C0F70181917F010E94A9000F5F75
:100190001F4F0C171D07B0F3CDB7DEB7E6E00C9488
:1001A0002E030E94B0008DE00E94A9008AE00E9408
:1001B000A90008958091C00087FFFCCF8091C60000
:1001C00008958091C000807808951F920F920FB615
:1001D0000F9211248F939F9385B190E2892785B95F
:1001E0009F918F910F900FBE0F901F9018951F92A7
:1001F0000F920FB60F9211242F933F938F939F93DB
:10020000EF93FF93809123018F5F8093230190915F
:100210002801891720F590E09C01220F331FE091FF
:100220002901F0912A01E20FF31F208131813093DF
:100230008B0020938A00109285001092840080FF2A
:1002400007C016BC80916E00826080936E0014C05F
:1002500080916E008D7F80936E002D9A0DC09093DB
:10026000220180916E008D7F80936E002D9A809187
:100270006F008D7F80936F00FF91EF919F918F9121
:100280003F912F910F900FBE0F901F9018951092D5
:1002900080008BE080938100109282001092850094
:1002A0001092840010922301E0912901F0912A011B
:1002B0008081918190938B0080938A002D9AEFE644
:1002C000F0E0808182608083B19A82E084BD85B550
:1002D000826085BD16BC8AE187BDEEE6F0E08081D4
:1002E00082608083A99A0895ADE0B0E0EAE7F1E08A
:1002F0000C9411030E94DA008093280190E0880F8B
:10030000991F0E943D038093290190932A0190E058
:10031000DD248E010F5F1F4F5EE0E52E51E0F52ECC
:100320003BC09D870E94DA009D858C3261F5992340
:1003300061F1F801E90FF11D108200D000D000D06A
:10034000EDB7FEB73196ADB7BEB712961C930E93BC
:100350001197F382E2822D2D30E0220F331F80911E
:10036000290190912A01820F931F958384830E9413
:100370009304D3948DB79EB706960FB6F8949EBF9C
:100380000FBE8DBF08C09C3030F4F801E90FF11D9D
:1003900080839F5F01C090E080912801D81608F209
:1003A000FFCFABE0B0E0E7EDF1E00C940F03E82EF7
:1003B000F92EBB248E010F5F1F4F81E1C82E81E013
:1003C000D82E49C000D000D000D0EDB7FEB731968E
:1003D000ADB7BEB712961C930E931197D382C2820B
:1003E000D7018D919C91958384836B870E947004C3
:1003F0008DB79EB706960FB6F8949EBF0FBE8DBF01
:10040000C8010E94B00000D000D000D0EDB7FEB708
:100410003196ADB7BEB712961C930E931197D38247
:10042000C282D70112968D919C91139795838483F4
:100430000E9470048DB79EB706960FB6F8949EBFC3
:100440000FBE8DBFC8010E94B000B394A4E0B0E01D
:10045000EA0EFB1E6B85B61608F4B4CF85E191E079
:100460000E94D1002B96E9E00C942B031F920F926F
:100470000FB60F9211248F939F93809127018823A9
:1004800029F080932401109225010DC0809126014E
:100490008F5F80932601893230F08FEF9FEF90932A
:1004A000250180932401109227019F918F910F9035
:1004B0000FBE0F901F9018951F920F920FB60F92BC
:1004C00011242F938F939F93EF93FF938091840038
:1004D00090918500209127014A990BC0E22FF0E00E
:1004E000EE0FFF1FEE0FFF1FE55DFE4F9183808330
:1004F0000DC0E22FF0E0EE0FFF1FEE0FFF1FE55DD6
:10050000FE4F938382832F5F2093270110928500F3
:1005100010928400FF91EF919F918F912F910F90F6
:100520000FBE0F901F9018955298109225011092AF
:10053000240110922601109280008BE080938100AC
:100540001092820084E294EF909389008093880057
:100550001092850010928400EFE6F0E080818260C6
:100560008083B19AE8E6F0E0808184608083EDE6E4
:10057000F0E0808184608083DA9A08950E9494027A
:1005800006C08FE193E00197F1F700C00000609191
:100590002401709125016115710599F377FF05C05C
:1005A00087E191E00E94D10004C08BE291E00E94BB
:1005B000D101809168008B7F8093680080916F00EB
:1005C0008D7F80936F000895A1E21A2EAA1BBB1B9A
:1005D000FD010DC0AA1FBB1FEE1FFF1FA217B3070F
:1005E000E407F50720F0A21BB30BE40BF50B661F25
:1005F000771F881F991F1A9469F7609570958095E9
:1006000090959B01AC01BD01CF0108952F923F92BF
:100610004F925F926F927F928F929F92AF92BF9212
:10062000CF92DF92EF92FF920F931F93CF93DF93BE
:10063000CDB7DEB7CA1BDB0B0FB6F894DEBF0FBE1B
:10064000CDBF09942A88398848885F846E847D8468
:100650008C849B84AA84B984C884DF80EE80FD806A
:100660000C811B81AA81B981CE0FD11D0FB6F894E0
:10067000DEBF0FBECDBFED010895CF93DF93823073
:10068000910510F482E090E0E0912905F0912A05AF
:1006900040E050E020E030E026C0608171816817C2
:1006A0007907E0F06817790781F482819381211539
:1006B000310531F0D90113969C938E9312972BC07C
:1006C00090932A058093290526C04115510519F0FC
:1006D0006417750718F4AB01E901DF019F0172810E
:1006E0006381E72FF62F3097C1F64115510501F1CF
:1006F000481B590B4430510580F412968D919C9102
:100700001397209719F09B838A8304C090932A053E
:1007100080932905FD01329646C0FD01E40FF51FC7
:10072000819391934250504011965C934E933BC0FD
:1007300020912705309128052115310541F420919C
:100740001D0130911E01309328052093270520912B
:100750001F01309120012115310541F42DB73EB71D
:1007600040911B0150911C01241B350BE091270582
:10077000F0912805E217F307A0F42E1B3F0B281772
:10078000390778F0AC014E5F5F4F2417350748F00A
:100790004E0F5F1F50932805409327058193919337
:1007A00002C0E0E0F0E0CF01DF91CF910895CF9358
:1007B000DF93009709F491C0FC01329713821282F3
:1007C0006091290570912A056115710581F42081D8
:1007D0003181280F391F80912705909128058217B4
:1007E000930799F5F0932805E093270576C0DB0180
:1007F00080E090E002C0CD01D901AE17BF0748F4F8
:1008000012962D913C91139721153105A1F7CD0139
:1008100021C0B383A283EF01499159919E01240F16
:10082000351FA217B30779F42D913C911197240F2E
:10083000351F2E5F3F4F3183208312962D913C91BF
:10084000139733832283009729F4F0932A05E093CA
:10085000290543C0DC011396FC93EE9312974D914A
:100860005D91A40FB51FEA17FB0769F42081318160
:10087000240F351F2E5F3F4FEC01398328832281DF
:1008800033813B832A83E0E0F0E002C0FB01BC013E
:10089000DB0112968D919C9113970097B9F79B01FC
:1008A0002E5F3F4F8D919C911197820F931F409126
:1008B0002705509128054817590779F4309729F4EE
:1008C00010922A051092290502C01382128222502A
:1008D00030403093280520932705DF91CF9108956C
:1008E000AEE0B0E0E6E7F4E00C9414030D891E8955
:1008F00086E08C831A8309838FEF9FE79E838D8325
:100900009E01275E3F4FCE0101966F89788DA90128
:100910000E94AD04EF81F885E00FF11F10822E9642
:10092000E4E00C943003AEE0B0E0E9E9F4E00C94CC
:10093000160385E08C838B899C899A8389839E0129
:10094000295E3F4FCE0101966D897E89A9010E94E3
:1009500026082E96E2E00C943203ACE0B0E0E3EB24
:10096000F4E00C9406036C011B018A01FC01178260
:100970001682838181FFD1C12E010894411C511C34
:10098000F6019381F10193FD859193FF81911F0100
:10099000882309F4BEC1853239F493FD859193FF14
:1009A00081911F01853229F490E0B6010E94C309AC
:1009B000E7CFEE24FF2420E02032B0F48B3269F040
:1009C0008C3228F4803251F0833271F40BC08D32B6
:1009D00039F0803349F421602CC02260246029C0A2
:1009E000286027C0206125C027FD2CC0382F305338
:1009F0003A3098F426FF08C08E2D880FE82EEE0CB2
:100A0000EE0CE80EE30E15C08F2D880FF82EFF0CAC
:100A1000FF0CF80EF30E20620CC08E3221F426FD7E
:100A200078C1206406C08C3611F4206802C0883674
:100A300049F4F10193FD859193FF81911F01882372
:100A400009F0BACF982F9554933018F09052933004
:100A500028F40C5F1F4FFFE3F9830DC0833631F09C
:100A6000833771F0833509F060C022C0F8018081BE
:100A700089830E5F1F4F420171E0A72EB12C16C073
:100A800062E0662E712C600E711EF80180809180EC
:100A900026FF03C06E2D70E002C06FEF7FEFC40130
:100AA0002C870E9476095C0183012C852F7717C063
:100AB00052E0652E712C600E711EF80180809180CD
:100AC00026FF03C06E2D70E002C06FEF7FEFC40100
:100AD0002C870E946B095C012C852068830123FD13
:100AE00020C008C080E290E0B6012C870E94C309B4
:100AF000FA942C858F2D90E0A816B90698F311C0B2
:100B0000F40127FD859127FF81914F0190E0B60107
:100B10002C870E94C3092C85F110FA940894A1082F
:100B2000B108A114B10461F7F1C0843611F089361F
:100B300049F527FF08C0F8016081718182819381A6
:100B40000C5F1F4F09C0F80160817181882777FD14
:100B50008095982F0E5F1F4F4FE6B42EB22297FF5D
:100B600009C090958095709561957F4F8F4F9F4FED
:100B7000F0E8BF2AA2012AE030E00E940A0A782E9B
:100B8000741845C0853731F43FEEB32EB2222AE007
:100B900030E025C099EFB92EB2228F36C1F08037F0
:100BA00020F4883509F0B5C00DC0803721F08837B2
:100BB00009F0AFC002C020E1B22AB4FE0BC084E04D
:100BC000B82A08C0B4FE09C0E6E0BE2A06C028E084
:100BD00030E005C020E130E002C020E132E0B7FEA5
:100BE00008C0F80160817181828193810C5F1F4F81
:100BF00007C0F8016081718180E090E00E5F1F4FB7
:100C0000A2010E940A0A782E7418FFE7BF22B6FEDE
:100C10000BC02EEFB2227E1438F4B4FE07C0B2FC33
:100C200005C08FEEB82202C0A72C01C0AE2C8B2DC0
:100C300090E0B4FE0DC0FE01E70DF11D20812033D0
:100C400019F4E9EEBE2209C0A394B2FE06C004C0A6
:100C500086789070009709F0A3948B2C9924B3FCAC
:100C600014C0B0FE0FC0AF1428F4E72CEF0CEA1844
:100C7000AF2C08C0E72C06C080E290E0B6010E94CD
:100C8000C309A394AF14C0F304C0AF1410F4FA184E
:100C900001C0FF2484FE0FC080E390E0B6010E94F3
:100CA000C30982FE1FC081FE03C088E590E010C02A
:100CB00088E790E00DC0C40186789070009791F0AD
:100CC00081FC02C080E201C08BE2B7FC8DE290E0C3
:100CD000B6010E94C30906C080E390E0B6010E94FD
:100CE000C309EA947E14C0F37A94F201E70DF11D72
:100CF000808190E0B6010E94C3097720A9F706C061
:100D000080E290E0B6010E94C309FA94FF20C1F787
:100D100037CEF6012681378102C02FEF3FEFC901A0
:100D20002C96E2E10C94220320FD09C0FC0123FD76
:100D300005C022FF02C073836283518340830895FC
:100D4000EF92FF920F931F9344FD10C046FD10C019
:100D5000DB01FC01AA0FBB1FEE1FFF1F1094D1F790
:100D60006A0F7B1F8E1F9F1F31E003C033E001C05D
:100D700034E0660F771F881F991F3150D1F77B0130
:100D80008C01E20EF11C011D111DA8019701B70194
:100D9000CA011F910F91FF90EF9008950F931F9339
:100DA000CF93DF938C01C8010E948109EC0197FD6C
:100DB00008C00E9458090097B1F7CE01B8010E94FF
:100DC000EF09CE01DF91CF911F910F9108958F927E
:100DD0009F92AF92BF92DF92EF92FF920F931F9379
:100DE000DF93CF930F92CDB7DEB74C01D62E5A01C9
:100DF000122F0E9481098B3219F08D3249F410684C
:100E0000DA9409F46CC0C4010E94810997FD67C09F
:100E1000312F3D7F232F2073F1F48033E1F4DA94F6
:100E200009F448C0C40139830E948109398197FDC2
:100E300041C03260883711F0883559F43064DA9453
:100E4000C9F1C40139830E948109398197FF03C028
:100E500031C036FF3061EE24FF248701282F205354
:100E6000283090F034FD09C02A3070F036FF05C0FC
:100E70002F7D422F4151463030F0B40139830E941A
:100E8000EF09398114C02750C801B701432F3983B6
:100E90000E94A0067B018C0139813260DA9469F0EE
:100EA000C40139830E948109398197FFD7CF31FD71
:100EB00004C015C0EE24FF24870137FF08C0109539
:100EC0000095F094E094E11CF11C011D111DC50179
:100ED000B801A701232F0E94940681E001C080E0A1
:100EE0000F90CF91DF911F910F91FF90EF90DF90C6
:100EF000BF90AF909F908F900895A1E2B0E0E3E89B
:100F0000F7E00C940A036C018A0179019E012F5FBE
:100F10003F4F80E2F90111928A95E9F7F60183804B
:100F200080E090E0BB24992470E0A1E0B0E0F701FC
:100F300083FCA59083FEA1907F01AA2009F47FC0C5
:100F4000FA2DFE3511F4009751F1472F50E0481764
:100F5000590744F44A2D4D3551F14D3219F4992079
:100F600001F103C0992009F4BA2C4A2D4695469503
:100F70004695F901E40FF11D4A2D47703D0102C06D
:100F8000660C771C4A95E2F7908096289082AB1405
:100F900059F0AB1410F4A394E8CFAA94E6CF71E013
:100FA00004C09924939401C099240196C0CF99203C
:100FB00019F08E8180628E83772351F0CE01819665
:100FC000FE013196208120952193E817F907D1F78A
:100FD000BB24B3944E010894811C911C01C0BB2416
:100FE000C60169A30E94810969A197FD20C0282F2D
:100FF000269526952695F401E20FF11D208130E01B
:10100000AC014770507002C0359527954A95E2F7BC
:1010100020FD04C0B6010E94EF0909C001151105A9
:1010200019F0F80181938F016150C9F602C0BB200D
:1010300031F40115110529F0F801108202C0EE24E7
:10104000FF24C701A196EEE00C9426034F925F9215
:101050007F928F929F92AF92BF92CF92DF92EF9248
:10106000FF920F931F93DF93CF930F92CDB7DEB70D
:101070008C016B014A01FC0117821682EE24F3C039
:101080008F2D90E00E945809009721F0C8010E941E
:10109000CE06E9C0FF2DF53251F4F601A3FC3591DF
:1010A000A3FE31916F01353271F455E2F52EC8017E
:1010B0000E94810997FDE3C0F81609F4D4C0B80175
:1010C0000E94EF09DEC03A3241F4A3FC3591A3FE41
:1010D00031916F01FF24F39401C0FF24772410C0E5
:1010E000F2E0FF2A672D70E080E090E040E20E948D
:1010F000A006762EF601A3FC3591A3FE31916F0177
:10110000232F20532A3060F3F1FE03C0772019F417
:10111000B8C077247A94383619F03C3699F40AC06E
:10112000F601A3FC3591A3FE31916F01383651F4DD
:10113000F8E0FF2A44E0F42AF601A3FC3591A3FE6F
:1011400031916F01332309F49CC088E690E0632F4E
:1011500070E039830E9460093981009709F491C0D9
:101160008F2DF0FC08C0F4014080518042E050E037
:10117000840E951E02C0442455243E3651F4F801D5
:101180004681578160E070E0C2012F2D0E949406D5
:101190006AC0333691F481FD02C077247394C8018C
:1011A0000E94810997FD6BC04114510419F0F201AE
:1011B00081932F017A9499F754C03B3559F4C801B3
:1011C000672DA20196010E947D076C01009709F02E
:1011D00048C042C0C80139830E94CE06398197FDBC
:1011E0004EC03F3661F1303728F4343629F13936B4
:1011F00049F52AC0333719F0353721F51DC0C8012C
:101200000E9481095C0197FD11C00E945809009756
:1012100029F0C501B8010E94EF0908C0411451042A
:1012200019F0F201A1922F017A9449F74114510467
:10123000C1F0F201108215C0F0E2FF2A05C040E1C2
:10124000F42A02C050E4F52AC801672DA2012F2D0F
:101250000E94E706882329F4F8018381807379F4DA
:1012600010C0F0FEE394F801A380F601A3FCF59012
:10127000A3FEF1906F01FF2009F002CF02C0EE2023
:1012800019F02E2D30E002C02FEF3FEFC9010F9073
:10129000CF91DF911F910F91FF90EF90DF90CF9052
:1012A000BF90AF909F908F907F905F904F900895E8
:1012B00091110EC1803219F089508550D0F70895F0
:1012C000FC010590061621F00020D9F7C001089511
:1012D0003197CF010895FC010590615070400110D5
:1012E000D8F7809590958E0F9F1F0895FC0161504F
:1012F000704001900110D8F7809590958E0F9F1F38
:101300000895CF93DF93EC013B8130FF36C036FF69
:1013100009C03F7B3B838E819F8101969F838E8393
:101320002A8129C032FF0FC0E881F9818081992785
:1013300087FD9095009719F430623B831EC031966B
:10134000F983E88311C0EA85FB85CE01099597FFF3
:101350000BC02B813FEF8F3F930711F480E101C059
:1013600080E2822B8B8309C02E813F812F5F3F4F0C
:101370003F832E83282F30E002C02FEF3FEFC901BB
:10138000DF91CF9108950F931F93CF93DF938C013B
:10139000EB018B8181FF1BC082FF0DC02E813F813D
:1013A0008C819D812817390764F4E881F9810193C4
:1013B000F983E88306C0E885F985802F09950097B1
:1013C00031F48E819F8101969F838E8302C00FEF3F
:1013D0001FEFC801DF91CF911F910F910895FB017D
:1013E000238120FF13C026FD11C03FEF8F3F9307DD
:1013F00069F0828320642F7D2383268137812150E9
:10140000304037832683282F30E002C02FEF3FEF94
:10141000C9010895FA01AA27283051F1203181F13C
:10142000E8946F936E7F6E5F7F4F8F4F9F4FAF4FEC
:10143000B1E03ED0B4E03CD0670F781F891F9A1FFF
:10144000A11D680F791F8A1F911DA11D6A0F711DB3
:10145000811D911DA11D20D009F468943F912AE0BF
:10146000269F11243019305D3193DEF6CF010895A7
:10147000462F4770405D4193B3E00FD0C9F7F6CFD8
:10148000462F4F70405D4A3318F0495D31FD4052A0
:10149000419302D0A9F7EACFB4E0A6959795879536
:1014A00077956795BA95C9F7009761057105089515
:1014B0009B01AC010A2E06945795479537952795C1
:1014C000BA95C9F7620F731F841F951FA01D089559
:0A14D000992788270895F894FFCFAC
:1014DA00456D697474696E6720636F64650025756C
:1014EA000025752C007C006572720020002B050017
:0214FA000000F0
:00000001FF
