:100000000C9434000C9451000C9451000C94510049
:100010000C9451000C9451000C9451000C9451001C
:100020000C9451000C9451000C9451000C9451000C
:100030000C9451000C9451000C9495000C945100B8
:100040000C9451000C9451000C9451000C945100EC
:100050000C9451000C9451000C9451000C945100DC
:100060000C9451000C94510011241FBECFEFD8E026
:10007000DEBFCDBF11E0A0E0B1E0EAECF2E002C0EB
:1000800005900D92A03FB107D9F711E0A0EFB1E0C4
:1000900001C01D92A53FB107E1F70E94DD000C945D
:1000A00063010C9400008CE284B98CE58CBD1DBC0E
:1000B00084E085B9089515B89F7090679EBD0DB412
:1000C00007FEFDCF8EBD0DB407FEFDCF84E085B9E0
:1000D000089522E024BD25BB20936E008230910557
:1000E000A1F08330910530F40097D1F08130910573
:1000F000D9F407C08330910561F084309105A1F4F3
:100100000BC083E085BD8EE109C083E085BD84E13D
:1001100005C025BD8CE702C025BD84E687BD0895D6
:1001200083E085BD8DE387BD08951F920F920FB6C2
:100130000F9211242F933F934F935F936F937F936D
:100140008F939F93AF93BF93EF93FF938091F401AD
:10015000883214F01092F4016091F401862F9927EF
:1001600087FD90954091F2015091F30128E230E033
:10017000429FF001439FF00D529FF00D1124E80FB4
:10018000F91FEE0FFF1FE050FF4F808191816F5FDD
:100190006093F4010E945B00FF91EF91BF91AF91DA
:1001A0009F918F917F916F915F914F913F912F918F
:1001B0000F900FBE0F901F901895CF93DF930E9462
:1001C00053008091F0019091F1010E94690087B184
:1001D000887F87B988B1876088B97894CFEFDFE0EE
:1001E000309917C08091F0019091F1018430910510
:1001F00029F41092F1011092F00105C0019690933C
:10020000F1018093F0018091F0019091F1010E9441
:100210006900319911C08091F2019091F30182300F
:10022000910529F41092F3011092F20105C0019694
:100230009093F3018093F20132993BC08091F201D7
:100240009091F3010097A9F5E0E0F1E0DF0180E093
:1002500090E04D915D919C012F5F3F4F41155105FD
:1002600059F4C90128323105A1F7C193D19381E036
:10027000E035F807D1F71DC0DC01AA0FBB1FA05065
:10028000BF4F11961C921E92F901EE0FFF1FE05016
:10029000FF4F11821082FC01EE0FFF1FEC5FFE4F3B
:1002A00011821082FC01EE0FFF1FEA5FFE4F1182E8
:1002B00010828FEF99E6A8E181509040A040E1F7CD
:0A02C00000C000008DCFF894FFCFBE
:1002CA000000000000000000000000000000000024
:1002DA000000000000000000000000000000000014
:1002EA000000000000000000FF0FFF0FFF0FFF0FCC
:1002FA00FF0FFF0FFF0FFF0FFF0FFF0FFF0FFF0F84
:10030A00FF0FFF0FFF0FFF0FFF0FFF0FFF0FFF0F73
:10031A0000084009780AA20BB30CA80D780E200F2A
:10032A009B0FE60FFF0FE60F9B0F200F780EA80D0D
:10033A00B30CA10B780A40090008BF0687055E04C2
:10034A004C0358028701DF006400190000001900FD
:10035A006400DF00870158024C035E048705BF066C
:10036A0000006400C8002C019001F4015802BC028C
:10037A0020038403E8034C04B00414057805DC0563
:10038A004006A40608076C07D00734089808FC083A
:10039A006009C409280A8C0AF00A540BB80B1C0C11
:1003AA00800CE40C480DAC0D100E740ED80E3C0FE8
:00000001FF
