:100000000C9434000C9451000C9451000C94510049
:100010000C9451000C9451000C9451000C9451001C
:100020000C9451000C9451000C9451000C9451000C
:100030000C9451000C9451000C9495000C945100B8
:100040000C9451000C9451000C9451000C945100EC
:100050000C9451000C9451000C9451000C945100DC
:100060000C9451000C94510011241FBECFEFD8E026
:10007000DEBFCDBF11E0A0E0B1E0E8E8F6E002C0ED
:1000800005900D92A43FB107D9F711E0A4EFB1E0BC
:1000900001C01D92AB3FB107E1F70E940D010C9426
:1000A00042030C9400008CE284B98CE58CBD1DBC2D
:1000B00084E085B9089515B89F7090679EBD0DB412
:1000C00007FEFDCF8EBD0DB407FEFDCF84E085B9E0
:1000D000089522E024BD25BB20936E008230910557
:1000E000A1F08330910530F40097D1F08130910573
:1000F000D9F407C08330910561F084309105A1F4F3
:100100000BC083E085BD8EE109C083E085BD84E13D
:1001100005C025BD8CE702C025BD84E687BD0895D6
:1001200083E085BD8DE387BD08951F920F920FB6C2
:100130000F921124EF92FF920F931F932F933F93EF
:100140004F935F936F937F938F939F93AF93BF93DF
:10015000CF93EF93FF938091FA01883214F01092BD
:10016000FA01C091FA018C2F992787FD9095409153
:10017000F6015091F70128E230E0429FF001439FE1
:10018000F00D529FF00D1124E80FF91FEE0FFF1F25
:10019000E050FF4F60817181882777FD8095982F0F
:1001A0000E9453022091F0013091F1014091F2013F
:1001B0005091F3010E94DF027B018C016091F801F4
:1001C0007091F901882777FD8095982F0E9453023E
:1001D0009B01AC01C801B7010E94BC010E94200232
:1001E000DC01CB01CF5FC093FA010E945B00FF915D
:1001F000EF91CF91BF91AF919F918F917F916F912F
:100200005F914F913F912F911F910F91FF90EF9030
:100210000F900FBE0F901F901895EF92FF920F93C3
:100220001F93CF93DF930E9453008091F40190912C
:10023000F5010E94690087B1887F87B988B187601E
:1002400088B978940F2EF0E0EF2EF0E0FF2EF0E06A
:100250000F2FFFE31F2FF02DCFEFDFE0309917C0F6
:100260008091F4019091F5018430910529F4109268
:10027000F5011092F40105C001969093F501809369
:10028000F4018091F4019091F5010E946900319987
:1002900011C08091F6019091F7018230910529F407
:1002A0001092F7011092F60105C001969093F701A4
:1002B0008093F601329955C08091F6019091F70133
:1002C0000097A9F5E0E0F1E0DF0180E090E04D91DA
:1002D0005D919C012F5F3F4F4115510559F4C901B4
:1002E00028323105A1F7C193D19321E0E035F2071F
:1002F000D1F737C0FC01EE0FFF1FE050FF4F118216
:100300001082F901EE0FFF1FE050FF4F11821082A3
:10031000FC01EE0FFF1FEC5FFE4F11821082FC010B
:10032000EE0FFF1FEA5FFE4F118210821AC0E092AB
:10033000F001F092F1010093F2011093F30180912A
:10034000F8019091F90180589F4F9093F9018093A3
:10035000F801A8E081309A0724F01092F901109278
:10036000F8018FEF99E6A8E181509040A040E1F7B5
:1003700000C0000073CF5058BB27AA270ED0E5C09D
:10038000D6D030F0DBD020F031F49F3F11F41EF4D2
:10039000CBC00EF4E095E7FBC1C0E92FE7D080F3B6
:1003A000BA17620773078407950718F071F49EF572
:1003B000FFC00EF4E0950B2EBA2FA02D0B01B90152
:1003C00090010C01CA01A0011124FF27591B99F0CB
:1003D000593F50F4503E68F11A16F040A22F232FD7
:1003E000342F4427585FF3CF469537952795A79527
:1003F000F0405395C9F77EF41F16BA0B620B730BCE
:10040000840BBAF09150A1F0FF0FBB1F661F771F3E
:10041000881FC2F70EC0BA0F621F731F841F48F4F3
:10042000879577956795B795F7959E3F08F0B3CF79
:100430009395880F08F09927EE0F97958795089563
:1004400004D06894B111B5C0089598D088F09F5732
:1004500090F0B92F9927B751A0F0D1F0660F771F10
:10046000881F991F1AF0BA95C9F712C0B13081F0F0
:100470009FD0B1E008959CC0672F782F8827B85F80
:1004800039F0B93FCCF3869577956795B395D9F751
:100490003EF490958095709561957F4F8F4F9F4F5B
:1004A0000895E89409C097FB3EF490958095709567
:1004B00061957F4F8F4F9F4F9923A9F0F92F96E9B0
:1004C000BB279395F695879577956795B795F11125
:1004D000F8CFFAF4BB0F11F460FF1BC06F5F7F4FC2
:1004E0008F4F9F4F16C0882311F096E911C07723D4
:1004F00021F09EE8872F762F05C0662371F096E8DD
:10050000862F70E060E02AF09A95660F771F881FAB
:10051000DAF7880F9695879597F9089597F99F6769
:1005200080E870E060E008959FEF80EC089500247B
:100530000A941616170618060906089500240A9448
:1005400012161306140605060895092E0394000CCE
:1005500011F4882352F0BB0F40F4BF2B11F460FF5D
:1005600004C06F5F7F4F8F4F9F4F089557FD905886
:10057000440F551F59F05F3F71F04795880F97FB67
:10058000991F61F09F3F79F0879508951216130621
:100590001406551FF2CF4695F1DF08C01616170650
:1005A0001806991FF1CF8695710561050894089585
:1005B000E894BB2766277727CB0197F908950BD0DE
:1005C000C4CFB5DF28F0BADF18F0952309F0A6CF25
:1005D000ABCF1124EECFCADFA0F3959FD1F3950FD7
:1005E00050E0551F629FF001729FBB27F00DB11DB7
:1005F000639FAA27F00DB11DAA1F649F6627B00D47
:10060000A11D661F829F2227B00DA11D621F739F2F
:10061000B00DA11D621F839FA00D611D221F749F3D
:100620003327A00D611D231F849F600D211D822F84
:10063000762F6A2F11249F5750408AF0E1F08823CB
:100640004AF0EE0FFF1FBB1F661F771F881F9150D8
:100650005040A9F79E3F510570F060CFAACF5F3F91
:10066000ECF3983EDCF3869577956795B795F7950B
:10067000E7959F5FC1F7FE2B880F911D9695879593
:0806800097F90895F894FFCFEB
:100688000000000000000000000000000000000062
:100698000000000000000000000000000000000052
:1006A8000000000000000000FF0FFF0FFF0FFF0F0A
:1006B800FF0FFF0FFF0FFF0FFF0FFF0FFF0FFF0FC2
:1006C800FF0FFF0FFF0FFF0FFF0FFF0FFF0FFF0FB2
:1006D80000084009780AA20BB30CA80D780E200F69
:1006E8009B0FE60FFF0FE60F9B0F200F780EA80D4C
:1006F800B30CA10B780A40090008BF0687055E0401
:100708004C0358028701DF0064001900000019003B
:100718006400DF00870158024C035E048705BF06AA
:1007280000006400C8002C019001F4015802BC02CA
:1007380020038403E8034C04B00414057805DC05A1
:100748004006A40608076C07D00734089808FC0878
:100758006009C409280A8C0AF00A540BB80B1C0C4F
:10076800800CE40C480DAC0D100E740ED80E3C0F26
:040778000000803FBE
:00000001FF
