:100000000C9434000C9451000C9451000C94510049
:100010000C9451000C9470000C9451000C945100FD
:100020000C9451000C9451000C9451000C948701D5
:100030000C9451000C9451000C9451000C945100FC
:100040000C9451000C9451000C9451000C945100EC
:100050000C9451000C9451000C9451000C945100DC
:100060000C9451000C94510011241FBECFEFD8E026
:10007000DEBFCDBF11E0A0E0B1E0E6E8F9E002C0EC
:1000800005900D92A830B107D9F712E0A8E0B1E0D1
:1000900001C01D92A939B107E1F70E94D8000C9464
:1000A000C1040C940000109280008BE080938100CA
:1000B0001092820084E294EF9093890080938800EC
:1000C000109285001092840082E080936F00B19AB4
:1000D000089584E08093680080936D008BBB089541
:1000E0001F920F920FB60F9211242F938F939F930D
:1000F000EF93FF93809184009091850020910801F7
:100100004A990BC0E22FF0E0EE0FFF1FEE0FFF1F2A
:10011000E75FFE4F918380830DC0E22FF0E0EE0F8A
:10012000FF1FEE0FFF1FE75FFE4F938382832F5F5A
:10013000209308011092850010928400FF91EF91A6
:100140009F918F912F910F900FBE0F901F90189538
:10015000EF92FF920F931F937A018B0174E0169533
:100160000795F794E7947A95D1F79C0140E050E029
:10017000C801B7010E94BE012150304040405040AC
:10018000BB27A52F942F832F8093C5002093C400F5
:1001900088E18093C1008EE08093C200E0ECF0E043
:1001A00080818D7F80831F910F91FF90EF90089544
:1001B000529880E895E240E054E264EF70E00E94DB
:1001C000A8000E9453000E9469007894FFCF90918C
:1001D000C00095FFFCCF8093C6000895EF92FF9278
:1001E0000F931F93CF93DF93EC0109900020E9F761
:1001F0002197C81BD90BE82EF92E00E010E007C0AC
:10020000F70181917F010E94E7000F5F1F4F0C17DC
:100210001D07B0F3CDB7DEB7E6E00C9408020E94EC
:10022000EE008DE00E94E7008AE00E94E70008955A
:10023000AAE0B0E0EEE1F1E00C94E801E82E092F2D
:10024000B62E80E091E00E940F01F02EAA248E01CC
:100250000F5F1F4FE2E0CE2EE1E0DE2E4DC089E0C1
:100260000E94E70000D000D000D0EDB7FEB7319675
:10027000ADB7BEB712961C930E931197D382C2826C
:10028000D7018D919C91958384830E9417028DB72D
:100290009EB706960FB6F8949EBF0FBE8DBFC801DD
:1002A0000E94EE008CE20E94E70000D000D000D057
:1002B000EDB7FEB73196ADB7BEB712961C930E934D
:1002C0001197D382C282D70112968D919C91139778
:1002D000958384830E9417028DB79EB706960FB64A
:1002E000F8949EBF0FBE8DBFC8010E940F01A3945A
:1002F000A4E0B0E0EA0EFB1EAB1408F4B0CF86E039
:1003000091E00E940F012A96EAE00C9404021F92E9
:100310000F920FB60F9211242F933F934F935F9339
:100320006F937F938F939F93AF93BF93EF93FF93BD
:1003300060910801662321F089E091E00E94180194
:1003400010920801FF91EF91BF91AF919F918F9112
:100350007F916F915F914F913F912F910F900FBEC1
:100360000F901F9018958091C00087FFFCCF80915F
:10037000C60008958091C00080780895A1E21A2EE9
:10038000AA1BBB1BFD010DC0AA1FBB1FEE1FFF1F39
:10039000A217B307E407F50720F0A21BB30BE40B89
:1003A000F50B661F771F881F991F1A9469F76095D0
:1003B0007095809590959B01AC01BD01CF0108958A
:1003C0002F923F924F925F926F927F928F929F9265
:1003D000AF92BF92CF92DF92EF92FF920F931F9353
:1003E000CF93DF93CDB7DEB7CA1BDB0B0FB6F89404
:1003F000DEBF0FBECDBF09942A88398848885F8444
:100400006E847D848C849B84AA84B984C884DF80B4
:10041000EE80FD800C811B81AA81B981CE0FD11D98
:100420000FB6F894DEBF0FBECDBFED010895AEE06C
:10043000B0E0EDE1F2E00C94EE010D891E8986E05A
:100440008C831A8309838FEF9FE79E838D839E01A0
:10045000275E3F4FCE0101966F89788DA9010E94DA
:100460003A02EF81F885E00FF11F10822E96E4E04A
:100470000C940A02ACE0B0E0E0E4F2E00C94E0019D
:100480006C011B018A01FC0117821682838181FFA6
:10049000D1C12E010894411C511CF6019381F10138
:1004A00093FD859193FF81911F01882309F4BEC1BB
:1004B000853239F493FD859193FF81911F01853237
:1004C00029F490E0B6010E943704E7CFEE24FF2420
:1004D00020E02032B0F48B3269F08C3228F4803284
:1004E00051F0833271F40BC08D3239F0803349F40E
:1004F00021602CC02260246029C0286027C02061B0
:1005000025C027FD2CC0382F30533A3098F426FFF1
:1005100008C08E2D880FE82EEE0CEE0CE80EE30ED0
:1005200015C08F2D880FF82EFF0CFF0CF80EF30E60
:1005300020620CC08E3221F426FD78C1206406C0F2
:100540008C3611F4206802C0883649F4F10193FD1D
:10055000859193FF81911F01882309F0BACF982FCD
:100560009554933018F09052933028F40C5F1F4F3D
:10057000FFE3F9830DC0833631F0833771F08335A3
:1005800009F060C022C0F801808189830E5F1F4F8F
:10059000420171E0A72EB12C16C062E0662E712CCC
:1005A000600E711EF8018080918026FF03C06E2DC1
:1005B00070E002C06FEF7FEFC4012C870E942C0413
:1005C0005C0183012C852F7717C052E0652E712CBA
:1005D000600E711EF8018080918026FF03C06E2D91
:1005E00070E002C06FEF7FEFC4012C870E942104EE
:1005F0005C012C852068830123FD20C008C080E2B7
:1006000090E0B6012C870E943704FA942C858F2D38
:1006100090E0A816B90698F311C0F40127FD859162
:1006200027FF81914F0190E0B6012C870E9437048B
:100630002C85F110FA940894A108B108A114B10412
:1006400061F7F1C0843611F0893649F527FF08C0FB
:10065000F80160817181828193810C5F1F4F09C015
:10066000F80160817181882777FD8095982F0E5F52
:100670001F4F4FE6B42EB22297FF09C09095809588
:10068000709561957F4F8F4F9F4FF0E8BF2AA20171
:100690002AE030E00E946304782E741845C0853744
:1006A00031F43FEEB32EB2222AE030E025C099EFBC
:1006B000B92EB2228F36C1F0803720F4883509F088
:1006C000B5C00DC0803721F0883709F0AFC002C037
:1006D00020E1B22AB4FE0BC084E0B82A08C0B4FE00
:1006E00009C0E6E0BE2A06C028E030E005C020E1EF
:1006F00030E002C020E132E0B7FE08C0F8016081BE
:100700007181828193810C5F1F4F07C0F801608166
:10071000718180E090E00E5F1F4FA2010E94630490
:10072000782E7418FFE7BF22B6FE0BC02EEFB22260
:100730007E1438F4B4FE07C0B2FC05C08FEEB822B8
:1007400002C0A72C01C0AE2C8B2D90E0B4FE0DC0D2
:10075000FE01E70DF11D2081203319F4E9EEBE22E0
:1007600009C0A394B2FE06C004C0867890700097BA
:1007700009F0A3948B2C9924B3FC14C0B0FE0FC0D5
:10078000AF1428F4E72CEF0CEA18AF2C08C0E72CC4
:1007900006C080E290E0B6010E943704A394AF1433
:1007A000C0F304C0AF1410F4FA1801C0FF2484FE93
:1007B0000FC080E390E0B6010E94370482FE1FC0A4
:1007C00081FE03C088E590E010C088E790E00DC08E
:1007D000C40186789070009791F081FC02C080E29D
:1007E00001C08BE2B7FC8DE290E0B6010E943704B5
:1007F00006C080E390E0B6010E943704EA947E14BC
:10080000C0F37A94F201E70DF11D808190E0B6010A
:100810000E9437047720A9F706C080E290E0B60175
:100820000E943704FA94FF20C1F737CEF6012681E3
:10083000378102C02FEF3FEFC9012C96E2E10C9403
:10084000FC01FC010590615070400110D8F78095C3
:1008500090958E0F9F1F0895FC016150704001908C
:100860000110D8F7809590958E0F9F1F08950F93D4
:100870001F93CF93DF938C01EB018B8181FF1BC012
:1008800082FF0DC02E813F818C819D812817390701
:1008900064F4E881F9810193F983E88306C0E8856F
:1008A000F985802F0995009731F48E819F810196FB
:1008B0009F838E8302C00FEF1FEFC801DF91CF919E
:1008C0001F910F910895FA01AA27283051F1203184
:1008D00081F1E8946F936E7F6E5F7F4F8F4F9F4FD4
:1008E000AF4FB1E03ED0B4E03CD0670F781F891F16
:1008F0009A1FA11D680F791F8A1F911DA11D6A0FE4
:10090000711D811D911DA11D20D009F468943F9196
:100910002AE0269F11243019305D3193DEF6CF0195
:100920000895462F4770405D4193B3E00FD0C9F75B
:10093000F6CF462F4F70405D4A3318F0495D31FDC8
:100940004052419302D0A9F7EACFB4E0A69597951B
:10095000879577956795BA95C9F7009761057105F1
:1009600008959B01AC010A2E06945795479537953B
:100970002795BA95C9F7620F731F841F951FA01D95
:060980000895F894FFCF7A
:080986007B00253675007D00A1
:00000001FF
