:100000000C9434000C9446000C9446000C9446006A
:100010000C9446000C9446000C9446000C94460048
:100020000C9446000C9446000C9446000C94460038
:100030000C9446000C9446000C9463000C9446000B
:100040000C9446000C9446000C9446000C94460018
:100050000C9446000C9446000C9446000C94460008
:100060000C9446000C94460011241FBECFEFD8E03C
:10007000DEBFCDBF11E0A0E0B1E001C01D92A13014
:10008000B107E1F70E945B000C94E7000C940000BC
:1000900014BC82E085BD91E095BB99E197BD80934A
:1000A0006E00089582E084BD85BD85BB99E197BD52
:1000B00080936E00089581E0809300010E945200B9
:1000C000259A7894FFCF1F920F920FB60F921124AA
:1000D0008F9380910001883021F4109200012D98B7
:1000E00005C080910001843009F42D9A80910001AF
:1000F0008F5F809300018F910F900FBE0F901F9024
:1001000018955C9A25B1207E982F96959695969590
:10011000922B95B99BB18295880F807E9F71892B18
:100120008BB985E38A95F1F700005C9808955A9899
:100130000E9481008FE59AEE0197F1F700C0000060
:10014000089580EC0E949700089580E80E9497002F
:1001500008958FE00E949700089588E00E9497001C
:10016000089581E00E94970008955A9A0E948100A4
:1001700087EC90E00197F1F700C000000895CF935D
:10018000DF93C82FD92F02C00E94B5008991882320
:10019000D9F7DF91CF9108958FEF90E7A2E08150DA
:1001A0009040A040E1F700C000008AB18C6F8AB98E
:1001B00084B18F6184B95C988CE30E9497000E949F
:1001C000A9000E94B10086E00E9497000895F8946B
:0201D000FFCF5F
:00000001FF
